{
  "_format": "hh-sol-artifact-1",
  "contractName": "PurgedNadsNFT",
  "sourceName": "contracts/PurgedNadsNFT.sol",
  "abi": [
    {
      "inputs": [
        {
          "internalType": "string",
          "name": "baseURI",
          "type": "string"
        }
      ],
      "stateMutability": "nonpayable",
      "type": "constructor"
    },
    {
      "inputs": [],
      "name": "ERC721EnumerableForbiddenBatchMint",
      "type": "error"
    },
    {
      "inputs": [
        {
          "internalType": "address",
          "name": "sender",
          "type": "address"
        },
        {
          "internalType": "uint256",
          "name": "tokenId",
          "type": "uint256"
        },
        {
          "internalType": "address",
          "name": "owner",
          "type": "address"
        }
      ],
      "name": "ERC721IncorrectOwner",
      "type": "error"
    },
    {
      "inputs": [
        {
          "internalType": "address",
          "name": "operator",
          "type": "address"
        },
        {
          "internalType": "uint256",
          "name": "tokenId",
          "type": "uint256"
        }
      ],
      "name": "ERC721InsufficientApproval",
      "type": "error"
    },
    {
      "inputs": [
        {
          "internalType": "address",
          "name": "approver",
          "type": "address"
        }
      ],
      "name": "ERC721InvalidApprover",
      "type": "error"
    },
    {
      "inputs": [
        {
          "internalType": "address",
          "name": "operator",
          "type": "address"
        }
      ],
      "name": "ERC721InvalidOperator",
      "type": "error"
    },
    {
      "inputs": [
        {
          "internalType": "address",
          "name": "owner",
          "type": "address"
        }
      ],
      "name": "ERC721InvalidOwner",
      "type": "error"
    },
    {
      "inputs": [
        {
          "internalType": "address",
          "name": "receiver",
          "type": "address"
        }
      ],
      "name": "ERC721InvalidReceiver",
      "type": "error"
    },
    {
      "inputs": [
        {
          "internalType": "address",
          "name": "sender",
          "type": "address"
        }
      ],
      "name": "ERC721InvalidSender",
      "type": "error"
    },
    {
      "inputs": [
        {
          "internalType": "uint256",
          "name": "tokenId",
          "type": "uint256"
        }
      ],
      "name": "ERC721NonexistentToken",
      "type": "error"
    },
    {
      "inputs": [
        {
          "internalType": "address",
          "name": "owner",
          "type": "address"
        },
        {
          "internalType": "uint256",
          "name": "index",
          "type": "uint256"
        }
      ],
      "name": "ERC721OutOfBoundsIndex",
      "type": "error"
    },
    {
      "inputs": [
        {
          "internalType": "address",
          "name": "owner",
          "type": "address"
        }
      ],
      "name": "OwnableInvalidOwner",
      "type": "error"
    },
    {
      "inputs": [
        {
          "internalType": "address",
          "name": "account",
          "type": "address"
        }
      ],
      "name": "OwnableUnauthorizedAccount",
      "type": "error"
    },
    {
      "anonymous": false,
      "inputs": [
        {
          "indexed": true,
          "internalType": "address",
          "name": "owner",
          "type": "address"
        },
        {
          "indexed": true,
          "internalType": "address",
          "name": "approved",
          "type": "address"
        },
        {
          "indexed": true,
          "internalType": "uint256",
          "name": "tokenId",
          "type": "uint256"
        }
      ],
      "name": "Approval",
      "type": "event"
    },
    {
      "anonymous": false,
      "inputs": [
        {
          "indexed": true,
          "internalType": "address",
          "name": "owner",
          "type": "address"
        },
        {
          "indexed": true,
          "internalType": "address",
          "name": "operator",
          "type": "address"
        },
        {
          "indexed": false,
          "internalType": "bool",
          "name": "approved",
          "type": "bool"
        }
      ],
      "name": "ApprovalForAll",
      "type": "event"
    },
    {
      "anonymous": false,
      "inputs": [
        {
          "indexed": true,
          "internalType": "address",
          "name": "previousOwner",
          "type": "address"
        },
        {
          "indexed": true,
          "internalType": "address",
          "name": "newOwner",
          "type": "address"
        }
      ],
      "name": "OwnershipTransferred",
      "type": "event"
    },
    {
      "anonymous": false,
      "inputs": [
        {
          "indexed": true,
          "internalType": "address",
          "name": "from",
          "type": "address"
        },
        {
          "indexed": true,
          "internalType": "address",
          "name": "to",
          "type": "address"
        },
        {
          "indexed": true,
          "internalType": "uint256",
          "name": "tokenId",
          "type": "uint256"
        }
      ],
      "name": "Transfer",
      "type": "event"
    },
    {
      "inputs": [],
      "name": "MAX_SUPPLY",
      "outputs": [
        {
          "internalType": "uint256",
          "name": "",
          "type": "uint256"
        }
      ],
      "stateMutability": "view",
      "type": "function"
    },
    {
      "inputs": [
        {
          "internalType": "address",
          "name": "to",
          "type": "address"
        },
        {
          "internalType": "uint256",
          "name": "tokenId",
          "type": "uint256"
        }
      ],
      "name": "approve",
      "outputs": [],
      "stateMutability": "nonpayable",
      "type": "function"
    },
    {
      "inputs": [
        {
          "internalType": "address",
          "name": "owner",
          "type": "address"
        }
      ],
      "name": "balanceOf",
      "outputs": [
        {
          "internalType": "uint256",
          "name": "",
          "type": "uint256"
        }
      ],
      "stateMutability": "view",
      "type": "function"
    },
    {
      "inputs": [
        {
          "internalType": "uint256",
          "name": "tokenId",
          "type": "uint256"
        }
      ],
      "name": "getApproved",
      "outputs": [
        {
          "internalType": "address",
          "name": "",
          "type": "address"
        }
      ],
      "stateMutability": "view",
      "type": "function"
    },
    {
      "inputs": [
        {
          "internalType": "address",
          "name": "owner",
          "type": "address"
        },
        {
          "internalType": "address",
          "name": "operator",
          "type": "address"
        }
      ],
      "name": "isApprovedForAll",
      "outputs": [
        {
          "internalType": "bool",
          "name": "",
          "type": "bool"
        }
      ],
      "stateMutability": "view",
      "type": "function"
    },
    {
      "inputs": [],
      "name": "maxSupply",
      "outputs": [
        {
          "internalType": "uint256",
          "name": "",
          "type": "uint256"
        }
      ],
      "stateMutability": "pure",
      "type": "function"
    },
    {
      "inputs": [],
      "name": "mintNFT",
      "outputs": [
        {
          "internalType": "uint256",
          "name": "",
          "type": "uint256"
        }
      ],
      "stateMutability": "payable",
      "type": "function"
    },
    {
      "inputs": [],
      "name": "mintPrice",
      "outputs": [
        {
          "internalType": "uint256",
          "name": "",
          "type": "uint256"
        }
      ],
      "stateMutability": "view",
      "type": "function"
    },
    {
      "inputs": [],
      "name": "name",
      "outputs": [
        {
          "internalType": "string",
          "name": "",
          "type": "string"
        }
      ],
      "stateMutability": "view",
      "type": "function"
    },
    {
      "inputs": [],
      "name": "owner",
      "outputs": [
        {
          "internalType": "address",
          "name": "",
          "type": "address"
        }
      ],
      "stateMutability": "view",
      "type": "function"
    },
    {
      "inputs": [
        {
          "internalType": "uint256",
          "name": "tokenId",
          "type": "uint256"
        }
      ],
      "name": "ownerOf",
      "outputs": [
        {
          "internalType": "address",
          "name": "",
          "type": "address"
        }
      ],
      "stateMutability": "view",
      "type": "function"
    },
    {
      "inputs": [],
      "name": "renounceOwnership",
      "outputs": [],
      "stateMutability": "nonpayable",
      "type": "function"
    },
    {
      "inputs": [
        {
          "internalType": "address",
          "name": "from",
          "type": "address"
        },
        {
          "internalType": "address",
          "name": "to",
          "type": "address"
        },
        {
          "internalType": "uint256",
          "name": "tokenId",
          "type": "uint256"
        }
      ],
      "name": "safeTransferFrom",
      "outputs": [],
      "stateMutability": "nonpayable",
      "type": "function"
    },
    {
      "inputs": [
        {
          "internalType": "address",
          "name": "from",
          "type": "address"
        },
        {
          "internalType": "address",
          "name": "to",
          "type": "address"
        },
        {
          "internalType": "uint256",
          "name": "tokenId",
          "type": "uint256"
        },
        {
          "internalType": "bytes",
          "name": "data",
          "type": "bytes"
        }
      ],
      "name": "safeTransferFrom",
      "outputs": [],
      "stateMutability": "nonpayable",
      "type": "function"
    },
    {
      "inputs": [
        {
          "internalType": "address",
          "name": "operator",
          "type": "address"
        },
        {
          "internalType": "bool",
          "name": "approved",
          "type": "bool"
        }
      ],
      "name": "setApprovalForAll",
      "outputs": [],
      "stateMutability": "nonpayable",
      "type": "function"
    },
    {
      "inputs": [
        {
          "internalType": "string",
          "name": "newBaseURI",
          "type": "string"
        }
      ],
      "name": "setBaseURI",
      "outputs": [],
      "stateMutability": "nonpayable",
      "type": "function"
    },
    {
      "inputs": [
        {
          "internalType": "uint256",
          "name": "newPrice",
          "type": "uint256"
        }
      ],
      "name": "setMintPrice",
      "outputs": [],
      "stateMutability": "nonpayable",
      "type": "function"
    },
    {
      "inputs": [
        {
          "internalType": "bytes4",
          "name": "interfaceId",
          "type": "bytes4"
        }
      ],
      "name": "supportsInterface",
      "outputs": [
        {
          "internalType": "bool",
          "name": "",
          "type": "bool"
        }
      ],
      "stateMutability": "view",
      "type": "function"
    },
    {
      "inputs": [],
      "name": "symbol",
      "outputs": [
        {
          "internalType": "string",
          "name": "",
          "type": "string"
        }
      ],
      "stateMutability": "view",
      "type": "function"
    },
    {
      "inputs": [
        {
          "internalType": "uint256",
          "name": "index",
          "type": "uint256"
        }
      ],
      "name": "tokenByIndex",
      "outputs": [
        {
          "internalType": "uint256",
          "name": "",
          "type": "uint256"
        }
      ],
      "stateMutability": "view",
      "type": "function"
    },
    {
      "inputs": [
        {
          "internalType": "address",
          "name": "owner",
          "type": "address"
        },
        {
          "internalType": "uint256",
          "name": "index",
          "type": "uint256"
        }
      ],
      "name": "tokenOfOwnerByIndex",
      "outputs": [
        {
          "internalType": "uint256",
          "name": "",
          "type": "uint256"
        }
      ],
      "stateMutability": "view",
      "type": "function"
    },
    {
      "inputs": [
        {
          "internalType": "uint256",
          "name": "tokenId",
          "type": "uint256"
        }
      ],
      "name": "tokenURI",
      "outputs": [
        {
          "internalType": "string",
          "name": "",
          "type": "string"
        }
      ],
      "stateMutability": "view",
      "type": "function"
    },
    {
      "inputs": [],
      "name": "totalSupply",
      "outputs": [
        {
          "internalType": "uint256",
          "name": "",
          "type": "uint256"
        }
      ],
      "stateMutability": "view",
      "type": "function"
    },
    {
      "inputs": [
        {
          "internalType": "address",
          "name": "from",
          "type": "address"
        },
        {
          "internalType": "address",
          "name": "to",
          "type": "address"
        },
        {
          "internalType": "uint256",
          "name": "tokenId",
          "type": "uint256"
        }
      ],
      "name": "transferFrom",
      "outputs": [],
      "stateMutability": "nonpayable",
      "type": "function"
    },
    {
      "inputs": [
        {
          "internalType": "address",
          "name": "newOwner",
          "type": "address"
        }
      ],
      "name": "transferOwnership",
      "outputs": [],
      "stateMutability": "nonpayable",
      "type": "function"
    },
    {
      "inputs": [],
      "name": "withdraw",
      "outputs": [],
      "stateMutability": "nonpayable",
      "type": "function"
    }
  ],
  "bytecode": "0x608060405266b1a2bc2ec50000600b553480156200001c57600080fd5b5060405162003807380380620038078339818101604052810190620000429190620003ce565b336040518060400160405280600f81526020017f507572676564204e616473204e465400000000000000000000000000000000008152506040518060400160405280600a81526020017f5055524745444e414453000000000000000000000000000000000000000000008152508160009081620000c091906200066a565b508060019081620000d291906200066a565b505050600073ffffffffffffffffffffffffffffffffffffffff168173ffffffffffffffffffffffffffffffffffffffff16036200014a5760006040517f1e4fbdf700000000000000000000000000000000000000000000000000000000815260040162000141919062000796565b60405180910390fd5b6200015b816200017560201b60201c565b5080600c90816200016d91906200066a565b5050620007b3565b6000600a60009054906101000a900473ffffffffffffffffffffffffffffffffffffffff16905081600a60006101000a81548173ffffffffffffffffffffffffffffffffffffffff021916908373ffffffffffffffffffffffffffffffffffffffff1602179055508173ffffffffffffffffffffffffffffffffffffffff168173ffffffffffffffffffffffffffffffffffffffff167f8be0079c531659141344cd1fd0a4f28419497f9722a3daafe3b4186f6b6457e060405160405180910390a35050565b6000604051905090565b600080fd5b600080fd5b600080fd5b600080fd5b6000601f19601f8301169050919050565b7f4e487b7100000000000000000000000000000000000000000000000000000000600052604160045260246000fd5b620002a48262000259565b810181811067ffffffffffffffff82111715620002c657620002c56200026a565b5b80604052505050565b6000620002db6200023b565b9050620002e9828262000299565b919050565b600067ffffffffffffffff8211156200030c576200030b6200026a565b5b620003178262000259565b9050602081019050919050565b60005b838110156200034457808201518184015260208101905062000327565b60008484015250505050565b6000620003676200036184620002ee565b620002cf565b90508281526020810184848401111562000386576200038562000254565b5b6200039384828562000324565b509392505050565b600082601f830112620003b357620003b26200024f565b5b8151620003c584826020860162000350565b91505092915050565b600060208284031215620003e757620003e662000245565b5b600082015167ffffffffffffffff8111156200040857620004076200024a565b5b62000416848285016200039b565b91505092915050565b600081519050919050565b7f4e487b7100000000000000000000000000000000000000000000000000000000600052602260045260246000fd5b600060028204905060018216806200047257607f821691505b6020821081036200048857620004876200042a565b5b50919050565b60008190508160005260206000209050919050565b60006020601f8301049050919050565b600082821b905092915050565b600060088302620004f27fffffffffffffffffffffffffffffffffffffffffffffffffffffffffffffffff82620004b3565b620004fe8683620004b3565b95508019841693508086168417925050509392505050565b6000819050919050565b6000819050919050565b60006200054b620005456200053f8462000516565b62000520565b62000516565b9050919050565b6000819050919050565b62000567836200052a565b6200057f620005768262000552565b848454620004c0565b825550505050565b600090565b6200059662000587565b620005a38184846200055c565b505050565b5b81811015620005cb57620005bf6000826200058c565b600181019050620005a9565b5050565b601f8211156200061a57620005e4816200048e565b620005ef84620004a3565b81016020851015620005ff578190505b620006176200060e85620004a3565b830182620005a8565b50505b505050565b600082821c905092915050565b60006200063f600019846008026200061f565b1980831691505092915050565b60006200065a83836200062c565b9150826002028217905092915050565b62000675826200041f565b67ffffffffffffffff8111156200069157620006906200026a565b5b6200069d825462000459565b620006aa828285620005cf565b600060209050601f831160018114620006e25760008415620006cd578287015190505b620006d985826200064c565b86555062000749565b601f198416620006f2866200048e565b60005b828110156200071c57848901518255600182019150602085019450602081019050620006f5565b868310156200073c578489015162000738601f8916826200062c565b8355505b6001600288020188555050505b505050505050565b600073ffffffffffffffffffffffffffffffffffffffff82169050919050565b60006200077e8262000751565b9050919050565b620007908162000771565b82525050565b6000602082019050620007ad600083018462000785565b92915050565b61304480620007c36000396000f3fe6080604052600436106101815760003560e01c80636352211e116100d1578063a22cb4651161008a578063d5abeb0111610064578063d5abeb0114610575578063e985e9c5146105a0578063f2fde38b146105dd578063f4a0a5281461060657610181565b8063a22cb465146104e6578063b88d4fde1461050f578063c87b56dd1461053857610181565b80636352211e146103d45780636817c76c1461041157806370a082311461043c578063715018a6146104795780638da5cb5b1461049057806395d89b41146104bb57610181565b806323b872dd1161013e5780633ccfd60b116101185780633ccfd60b1461032e57806342842e0e146103455780634f6ccce71461036e57806355f804b3146103ab57610181565b806323b872dd1461029d5780632f745c59146102c657806332cb6b0c1461030357610181565b806301ffc9a71461018657806306fdde03146101c3578063081812fc146101ee578063095ea7b31461022b57806314f710fe1461025457806318160ddd14610272575b600080fd5b34801561019257600080fd5b506101ad60048036038101906101a891906121b4565b61062f565b6040516101ba91906121fc565b60405180910390f35b3480156101cf57600080fd5b506101d8610641565b6040516101e591906122a7565b60405180910390f35b3480156101fa57600080fd5b50610215600480360381019061021091906122ff565b6106d3565b604051610222919061236d565b60405180910390f35b34801561023757600080fd5b50610252600480360381019061024d91906123b4565b6106ef565b005b61025c610705565b6040516102699190612403565b60405180910390f35b34801561027e57600080fd5b506102876107c0565b6040516102949190612403565b60405180910390f35b3480156102a957600080fd5b506102c460048036038101906102bf919061241e565b6107cf565b005b3480156102d257600080fd5b506102ed60048036038101906102e891906123b4565b6108d1565b6040516102fa9190612403565b60405180910390f35b34801561030f57600080fd5b5061031861097a565b6040516103259190612403565b60405180910390f35b34801561033a57600080fd5b50610343610980565b005b34801561035157600080fd5b5061036c6004803603810190610367919061241e565b610a87565b005b34801561037a57600080fd5b50610395600480360381019061039091906122ff565b610aa7565b6040516103a29190612403565b60405180910390f35b3480156103b757600080fd5b506103d260048036038101906103cd91906125a6565b610b1d565b005b3480156103e057600080fd5b506103fb60048036038101906103f691906122ff565b610b38565b604051610408919061236d565b60405180910390f35b34801561041d57600080fd5b50610426610b4a565b6040516104339190612403565b60405180910390f35b34801561044857600080fd5b50610463600480360381019061045e91906125ef565b610b50565b6040516104709190612403565b60405180910390f35b34801561048557600080fd5b5061048e610c0a565b005b34801561049c57600080fd5b506104a5610c1e565b6040516104b2919061236d565b60405180910390f35b3480156104c757600080fd5b506104d0610c48565b6040516104dd91906122a7565b60405180910390f35b3480156104f257600080fd5b5061050d60048036038101906105089190612648565b610cda565b005b34801561051b57600080fd5b5061053660048036038101906105319190612729565b610cf0565b005b34801561054457600080fd5b5061055f600480360381019061055a91906122ff565b610d15565b60405161056c91906122a7565b60405180910390f35b34801561058157600080fd5b5061058a610dc2565b6040516105979190612403565b60405180910390f35b3480156105ac57600080fd5b506105c760048036038101906105c291906127ac565b610dcc565b6040516105d491906121fc565b60405180910390f35b3480156105e957600080fd5b5061060460048036038101906105ff91906125ef565b610e60565b005b34801561061257600080fd5b5061062d600480360381019061062891906122ff565b610ee6565b005b600061063a82610ef8565b9050919050565b6060600080546106509061281b565b80601f016020809104026020016040519081016040528092919081815260200182805461067c9061281b565b80156106c95780601f1061069e576101008083540402835291602001916106c9565b820191906000526020600020905b8154815290600101906020018083116106ac57829003601f168201915b5050505050905090565b60006106de82610f72565b506106e882610ffa565b9050919050565b61070182826106fc611037565b61103f565b5050565b60006109c46107126107c0565b10610752576040517f08c379a000000000000000000000000000000000000000000000000000000000815260040161074990612898565b60405180910390fd5b600b54341015610797576040517f08c379a000000000000000000000000000000000000000000000000000000000815260040161078e90612904565b60405180910390fd5b600060016107a36107c0565b6107ad9190612953565b90506107b93382611051565b8091505090565b60006107ca61106f565b905090565b600073ffffffffffffffffffffffffffffffffffffffff168273ffffffffffffffffffffffffffffffffffffffff16036108415760006040517f64a0ae92000000000000000000000000000000000000000000000000000000008152600401610838919061236d565b60405180910390fd5b60006108558383610850611037565b61107c565b90508373ffffffffffffffffffffffffffffffffffffffff168173ffffffffffffffffffffffffffffffffffffffff16146108cb578382826040517f64283d7b0000000000000000000000000000000000000000000000000000000081526004016108c293929190612987565b60405180910390fd5b50505050565b60006108dc83610b50565b82106109215782826040517fa57d13dc0000000000000000000000000000000000000000000000000000000081526004016109189291906129be565b60405180910390fd5b600660008473ffffffffffffffffffffffffffffffffffffffff1673ffffffffffffffffffffffffffffffffffffffff168152602001908152602001600020600083815260200190815260200160002054905092915050565b6109c481565b610988611092565b6000479050600081116109d0576040517f08c379a00000000000000000000000000000000000000000000000000000000081526004016109c790612a33565b60405180910390fd5b60006109da610c1e565b73ffffffffffffffffffffffffffffffffffffffff16826040516109fd90612a84565b60006040518083038185875af1925050503d8060008114610a3a576040519150601f19603f3d011682016040523d82523d6000602084013e610a3f565b606091505b5050905080610a83576040517f08c379a0000000000000000000000000000000000000000000000000000000008152600401610a7a90612ae5565b60405180910390fd5b5050565b610aa283838360405180602001604052806000815250610cf0565b505050565b6000610ab16107c0565b8210610af7576000826040517fa57d13dc000000000000000000000000000000000000000000000000000000008152600401610aee9291906129be565b60405180910390fd5b60088281548110610b0b57610b0a612b05565b5b90600052602060002001549050919050565b610b25611092565b80600c9081610b349190612ce0565b5050565b6000610b4382610f72565b9050919050565b600b5481565b60008073ffffffffffffffffffffffffffffffffffffffff168273ffffffffffffffffffffffffffffffffffffffff1603610bc35760006040517f89c62b64000000000000000000000000000000000000000000000000000000008152600401610bba919061236d565b60405180910390fd5b600360008373ffffffffffffffffffffffffffffffffffffffff1673ffffffffffffffffffffffffffffffffffffffff168152602001908152602001600020549050919050565b610c12611092565b610c1c6000611119565b565b6000600a60009054906101000a900473ffffffffffffffffffffffffffffffffffffffff16905090565b606060018054610c579061281b565b80601f0160208091040260200160405190810160405280929190818152602001828054610c839061281b565b8015610cd05780601f10610ca557610100808354040283529160200191610cd0565b820191906000526020600020905b815481529060010190602001808311610cb357829003601f168201915b5050505050905090565b610cec610ce5611037565b83836111df565b5050565b610cfb8484846107cf565b610d0f610d06611037565b8585858561134e565b50505050565b60606000610d22836114ff565b9050600073ffffffffffffffffffffffffffffffffffffffff168173ffffffffffffffffffffffffffffffffffffffff1603610d93576040517f08c379a0000000000000000000000000000000000000000000000000000000008152600401610d8a90612dfe565b60405180910390fd5b610d9b61153c565b604051602001610dab9190612ea6565b604051602081830303815290604052915050919050565b60006109c4905090565b6000600560008473ffffffffffffffffffffffffffffffffffffffff1673ffffffffffffffffffffffffffffffffffffffff16815260200190815260200160002060008373ffffffffffffffffffffffffffffffffffffffff1673ffffffffffffffffffffffffffffffffffffffff16815260200190815260200160002060009054906101000a900460ff16905092915050565b610e68611092565b600073ffffffffffffffffffffffffffffffffffffffff168173ffffffffffffffffffffffffffffffffffffffff1603610eda5760006040517f1e4fbdf7000000000000000000000000000000000000000000000000000000008152600401610ed1919061236d565b60405180910390fd5b610ee381611119565b50565b610eee611092565b80600b8190555050565b60007f780e9d63000000000000000000000000000000000000000000000000000000007bffffffffffffffffffffffffffffffffffffffffffffffffffffffff1916827bffffffffffffffffffffffffffffffffffffffffffffffffffffffff19161480610f6b5750610f6a826115ce565b5b9050919050565b600080610f7e836114ff565b9050600073ffffffffffffffffffffffffffffffffffffffff168173ffffffffffffffffffffffffffffffffffffffff1603610ff157826040517f7e273289000000000000000000000000000000000000000000000000000000008152600401610fe89190612403565b60405180910390fd5b80915050919050565b60006004600083815260200190815260200160002060009054906101000a900473ffffffffffffffffffffffffffffffffffffffff169050919050565b600033905090565b61104c83838360016116b0565b505050565b61106b828260405180602001604052806000815250611875565b5050565b6000600880549050905090565b6000611089848484611899565b90509392505050565b61109a611037565b73ffffffffffffffffffffffffffffffffffffffff166110b8610c1e565b73ffffffffffffffffffffffffffffffffffffffff1614611117576110db611037565b6040517f118cdaa700000000000000000000000000000000000000000000000000000000815260040161110e919061236d565b60405180910390fd5b565b6000600a60009054906101000a900473ffffffffffffffffffffffffffffffffffffffff16905081600a60006101000a81548173ffffffffffffffffffffffffffffffffffffffff021916908373ffffffffffffffffffffffffffffffffffffffff1602179055508173ffffffffffffffffffffffffffffffffffffffff168173ffffffffffffffffffffffffffffffffffffffff167f8be0079c531659141344cd1fd0a4f28419497f9722a3daafe3b4186f6b6457e060405160405180910390a35050565b600073ffffffffffffffffffffffffffffffffffffffff168273ffffffffffffffffffffffffffffffffffffffff160361125057816040517f5b08ba18000000000000000000000000000000000000000000000000000000008152600401611247919061236d565b60405180910390fd5b80600560008573ffffffffffffffffffffffffffffffffffffffff1673ffffffffffffffffffffffffffffffffffffffff16815260200190815260200160002060008473ffffffffffffffffffffffffffffffffffffffff1673ffffffffffffffffffffffffffffffffffffffff16815260200190815260200160002060006101000a81548160ff0219169083151502179055508173ffffffffffffffffffffffffffffffffffffffff168373ffffffffffffffffffffffffffffffffffffffff167f17307eab39ab6107e8899845ad3d59bd9653f200f220920489ca2b5937696c318360405161134191906121fc565b60405180910390a3505050565b60008373ffffffffffffffffffffffffffffffffffffffff163b11156114f8578273ffffffffffffffffffffffffffffffffffffffff1663150b7a02868685856040518563ffffffff1660e01b81526004016113ad9493929190612f1d565b6020604051808303816000875af19250505080156113e957506040513d601f19601f820116820180604052508101906113e69190612f7e565b60015b61146d573d8060008114611419576040519150601f19603f3d011682016040523d82523d6000602084013e61141e565b606091505b50600081510361146557836040517f64a0ae9200000000000000000000000000000000000000000000000000000000815260040161145c919061236d565b60405180910390fd5b805181602001fd5b63150b7a0260e01b7bffffffffffffffffffffffffffffffffffffffffffffffffffffffff1916817bffffffffffffffffffffffffffffffffffffffffffffffffffffffff1916146114f657836040517f64a0ae920000000000000000000000000000000000000000000000000000000081526004016114ed919061236d565b60405180910390fd5b505b5050505050565b60006002600083815260200190815260200160002060009054906101000a900473ffffffffffffffffffffffffffffffffffffffff169050919050565b6060600c805461154b9061281b565b80601f01602080910402602001604051908101604052809291908181526020018280546115779061281b565b80156115c45780601f10611599576101008083540402835291602001916115c4565b820191906000526020600020905b8154815290600101906020018083116115a757829003601f168201915b5050505050905090565b60007f80ac58cd000000000000000000000000000000000000000000000000000000007bffffffffffffffffffffffffffffffffffffffffffffffffffffffff1916827bffffffffffffffffffffffffffffffffffffffffffffffffffffffff1916148061169957507f5b5e139f000000000000000000000000000000000000000000000000000000007bffffffffffffffffffffffffffffffffffffffffffffffffffffffff1916827bffffffffffffffffffffffffffffffffffffffffffffffffffffffff1916145b806116a957506116a8826119b6565b5b9050919050565b80806116e95750600073ffffffffffffffffffffffffffffffffffffffff168273ffffffffffffffffffffffffffffffffffffffff1614155b1561181d5760006116f984610f72565b9050600073ffffffffffffffffffffffffffffffffffffffff168373ffffffffffffffffffffffffffffffffffffffff161415801561176457508273ffffffffffffffffffffffffffffffffffffffff168173ffffffffffffffffffffffffffffffffffffffff1614155b801561177757506117758184610dcc565b155b156117b957826040517fa9fbf51f0000000000000000000000000000000000000000000000000000000081526004016117b0919061236d565b60405180910390fd5b811561181b57838573ffffffffffffffffffffffffffffffffffffffff168273ffffffffffffffffffffffffffffffffffffffff167f8c5be1e5ebec7d5bd14f71427d1e84f3dd0314c0f7b2291e5b200ac8c7c3b92560405160405180910390a45b505b836004600085815260200190815260200160002060006101000a81548173ffffffffffffffffffffffffffffffffffffffff021916908373ffffffffffffffffffffffffffffffffffffffff16021790555050505050565b61187f8383611a20565b61189461188a611037565b600085858561134e565b505050565b6000806118a7858585611b19565b9050600073ffffffffffffffffffffffffffffffffffffffff168173ffffffffffffffffffffffffffffffffffffffff16036118eb576118e684611d33565b61192a565b8473ffffffffffffffffffffffffffffffffffffffff168173ffffffffffffffffffffffffffffffffffffffff1614611929576119288185611d7c565b5b5b600073ffffffffffffffffffffffffffffffffffffffff168573ffffffffffffffffffffffffffffffffffffffff160361196c5761196784611e67565b6119ab565b8473ffffffffffffffffffffffffffffffffffffffff168173ffffffffffffffffffffffffffffffffffffffff16146119aa576119a98585611f38565b5b5b809150509392505050565b60007f01ffc9a7000000000000000000000000000000000000000000000000000000007bffffffffffffffffffffffffffffffffffffffffffffffffffffffff1916827bffffffffffffffffffffffffffffffffffffffffffffffffffffffff1916149050919050565b600073ffffffffffffffffffffffffffffffffffffffff168273ffffffffffffffffffffffffffffffffffffffff1603611a925760006040517f64a0ae92000000000000000000000000000000000000000000000000000000008152600401611a89919061236d565b60405180910390fd5b6000611aa08383600061107c565b9050600073ffffffffffffffffffffffffffffffffffffffff168173ffffffffffffffffffffffffffffffffffffffff1614611b145760006040517f73c6ac6e000000000000000000000000000000000000000000000000000000008152600401611b0b919061236d565b60405180910390fd5b505050565b600080611b25846114ff565b9050600073ffffffffffffffffffffffffffffffffffffffff168373ffffffffffffffffffffffffffffffffffffffff1614611b6757611b66818486611fc3565b5b600073ffffffffffffffffffffffffffffffffffffffff168173ffffffffffffffffffffffffffffffffffffffff1614611bf857611ba96000856000806116b0565b6001600360008373ffffffffffffffffffffffffffffffffffffffff1673ffffffffffffffffffffffffffffffffffffffff168152602001908152602001600020600082825403925050819055505b600073ffffffffffffffffffffffffffffffffffffffff168573ffffffffffffffffffffffffffffffffffffffff1614611c7b576001600360008773ffffffffffffffffffffffffffffffffffffffff1673ffffffffffffffffffffffffffffffffffffffff168152602001908152602001600020600082825401925050819055505b846002600086815260200190815260200160002060006101000a81548173ffffffffffffffffffffffffffffffffffffffff021916908373ffffffffffffffffffffffffffffffffffffffff160217905550838573ffffffffffffffffffffffffffffffffffffffff168273ffffffffffffffffffffffffffffffffffffffff167fddf252ad1be2c89b69c2b068fc378daa952ba7f163c4a11628f55a4df523b3ef60405160405180910390a4809150509392505050565b6008805490506009600083815260200190815260200160002081905550600881908060018154018082558091505060019003906000526020600020016000909190919091505550565b6000611d8783610b50565b90506000600760008481526020019081526020016000205490506000600660008673ffffffffffffffffffffffffffffffffffffffff1673ffffffffffffffffffffffffffffffffffffffff1681526020019081526020016000209050828214611e335760008160008581526020019081526020016000205490508082600085815260200190815260200160002081905550826007600083815260200190815260200160002081905550505b6007600085815260200190815260200160002060009055806000848152602001908152602001600020600090555050505050565b60006001600880549050611e7b9190612fab565b9050600060096000848152602001908152602001600020549050600060088381548110611eab57611eaa612b05565b5b906000526020600020015490508060088381548110611ecd57611ecc612b05565b5b906000526020600020018190555081600960008381526020019081526020016000208190555060096000858152602001908152602001600020600090556008805480611f1c57611f1b612fdf565b5b6001900381819060005260206000200160009055905550505050565b60006001611f4584610b50565b611f4f9190612fab565b905081600660008573ffffffffffffffffffffffffffffffffffffffff1673ffffffffffffffffffffffffffffffffffffffff168152602001908152602001600020600083815260200190815260200160002081905550806007600084815260200190815260200160002081905550505050565b611fce838383612087565b61208257600073ffffffffffffffffffffffffffffffffffffffff168373ffffffffffffffffffffffffffffffffffffffff160361204357806040517f7e27328900000000000000000000000000000000000000000000000000000000815260040161203a9190612403565b60405180910390fd5b81816040517f177e802f0000000000000000000000000000000000000000000000000000000081526004016120799291906129be565b60405180910390fd5b505050565b60008073ffffffffffffffffffffffffffffffffffffffff168373ffffffffffffffffffffffffffffffffffffffff161415801561213f57508273ffffffffffffffffffffffffffffffffffffffff168473ffffffffffffffffffffffffffffffffffffffff16148061210057506120ff8484610dcc565b5b8061213e57508273ffffffffffffffffffffffffffffffffffffffff1661212683610ffa565b73ffffffffffffffffffffffffffffffffffffffff16145b5b90509392505050565b6000604051905090565b600080fd5b600080fd5b60007fffffffff0000000000000000000000000000000000000000000000000000000082169050919050565b6121918161215c565b811461219c57600080fd5b50565b6000813590506121ae81612188565b92915050565b6000602082840312156121ca576121c9612152565b5b60006121d88482850161219f565b91505092915050565b60008115159050919050565b6121f6816121e1565b82525050565b600060208201905061221160008301846121ed565b92915050565b600081519050919050565b600082825260208201905092915050565b60005b83811015612251578082015181840152602081019050612236565b60008484015250505050565b6000601f19601f8301169050919050565b600061227982612217565b6122838185612222565b9350612293818560208601612233565b61229c8161225d565b840191505092915050565b600060208201905081810360008301526122c1818461226e565b905092915050565b6000819050919050565b6122dc816122c9565b81146122e757600080fd5b50565b6000813590506122f9816122d3565b92915050565b60006020828403121561231557612314612152565b5b6000612323848285016122ea565b91505092915050565b600073ffffffffffffffffffffffffffffffffffffffff82169050919050565b60006123578261232c565b9050919050565b6123678161234c565b82525050565b6000602082019050612382600083018461235e565b92915050565b6123918161234c565b811461239c57600080fd5b50565b6000813590506123ae81612388565b92915050565b600080604083850312156123cb576123ca612152565b5b60006123d98582860161239f565b92505060206123ea858286016122ea565b9150509250929050565b6123fd816122c9565b82525050565b600060208201905061241860008301846123f4565b92915050565b60008060006060848603121561243757612436612152565b5b60006124458682870161239f565b93505060206124568682870161239f565b9250506040612467868287016122ea565b9150509250925092565b600080fd5b600080fd5b7f4e487b7100000000000000000000000000000000000000000000000000000000600052604160045260246000fd5b6124b38261225d565b810181811067ffffffffffffffff821117156124d2576124d161247b565b5b80604052505050565b60006124e5612148565b90506124f182826124aa565b919050565b600067ffffffffffffffff8211156125115761251061247b565b5b61251a8261225d565b9050602081019050919050565b82818337600083830152505050565b6000612549612544846124f6565b6124db565b90508281526020810184848401111561256557612564612476565b5b612570848285612527565b509392505050565b600082601f83011261258d5761258c612471565b5b813561259d848260208601612536565b91505092915050565b6000602082840312156125bc576125bb612152565b5b600082013567ffffffffffffffff8111156125da576125d9612157565b5b6125e684828501612578565b91505092915050565b60006020828403121561260557612604612152565b5b60006126138482850161239f565b91505092915050565b612625816121e1565b811461263057600080fd5b50565b6000813590506126428161261c565b92915050565b6000806040838503121561265f5761265e612152565b5b600061266d8582860161239f565b925050602061267e85828601612633565b9150509250929050565b600067ffffffffffffffff8211156126a3576126a261247b565b5b6126ac8261225d565b9050602081019050919050565b60006126cc6126c784612688565b6124db565b9050828152602081018484840111156126e8576126e7612476565b5b6126f3848285612527565b509392505050565b600082601f8301126127105761270f612471565b5b81356127208482602086016126b9565b91505092915050565b6000806000806080858703121561274357612742612152565b5b60006127518782880161239f565b94505060206127628782880161239f565b9350506040612773878288016122ea565b925050606085013567ffffffffffffffff81111561279457612793612157565b5b6127a0878288016126fb565b91505092959194509250565b600080604083850312156127c3576127c2612152565b5b60006127d18582860161239f565b92505060206127e28582860161239f565b9150509250929050565b7f4e487b7100000000000000000000000000000000000000000000000000000000600052602260045260246000fd5b6000600282049050600182168061283357607f821691505b602082108103612846576128456127ec565b5b50919050565b7f4d617820737570706c7920726561636865640000000000000000000000000000600082015250565b6000612882601283612222565b915061288d8261284c565b602082019050919050565b600060208201905081810360008301526128b181612875565b9050919050565b7f496e73756666696369656e74207061796d656e74000000000000000000000000600082015250565b60006128ee601483612222565b91506128f9826128b8565b602082019050919050565b6000602082019050818103600083015261291d816128e1565b9050919050565b7f4e487b7100000000000000000000000000000000000000000000000000000000600052601160045260246000fd5b600061295e826122c9565b9150612969836122c9565b925082820190508082111561298157612980612924565b5b92915050565b600060608201905061299c600083018661235e565b6129a960208301856123f4565b6129b6604083018461235e565b949350505050565b60006040820190506129d3600083018561235e565b6129e060208301846123f4565b9392505050565b7f4e6f2066756e647320746f207769746864726177000000000000000000000000600082015250565b6000612a1d601483612222565b9150612a28826129e7565b602082019050919050565b60006020820190508181036000830152612a4c81612a10565b9050919050565b600081905092915050565b50565b6000612a6e600083612a53565b9150612a7982612a5e565b600082019050919050565b6000612a8f82612a61565b9150819050919050565b7f5769746864726177616c206661696c6564000000000000000000000000000000600082015250565b6000612acf601183612222565b9150612ada82612a99565b602082019050919050565b60006020820190508181036000830152612afe81612ac2565b9050919050565b7f4e487b7100000000000000000000000000000000000000000000000000000000600052603260045260246000fd5b60008190508160005260206000209050919050565b60006020601f8301049050919050565b600082821b905092915050565b600060088302612b967fffffffffffffffffffffffffffffffffffffffffffffffffffffffffffffffff82612b59565b612ba08683612b59565b95508019841693508086168417925050509392505050565b6000819050919050565b6000612bdd612bd8612bd3846122c9565b612bb8565b6122c9565b9050919050565b6000819050919050565b612bf783612bc2565b612c0b612c0382612be4565b848454612b66565b825550505050565b600090565b612c20612c13565b612c2b818484612bee565b505050565b5b81811015612c4f57612c44600082612c18565b600181019050612c31565b5050565b601f821115612c9457612c6581612b34565b612c6e84612b49565b81016020851015612c7d578190505b612c91612c8985612b49565b830182612c30565b50505b505050565b600082821c905092915050565b6000612cb760001984600802612c99565b1980831691505092915050565b6000612cd08383612ca6565b9150826002028217905092915050565b612ce982612217565b67ffffffffffffffff811115612d0257612d0161247b565b5b612d0c825461281b565b612d17828285612c53565b600060209050601f831160018114612d4a5760008415612d38578287015190505b612d428582612cc4565b865550612daa565b601f198416612d5886612b34565b60005b82811015612d8057848901518255600182019150602085019450602081019050612d5b565b86831015612d9d5784890151612d99601f891682612ca6565b8355505b6001600288020188555050505b505050505050565b7f55524920717565727920666f72206e6f6e6578697374656e7420746f6b656e00600082015250565b6000612de8601f83612222565b9150612df382612db2565b602082019050919050565b60006020820190508181036000830152612e1781612ddb565b9050919050565b600081905092915050565b6000612e3482612217565b612e3e8185612e1e565b9350612e4e818560208601612233565b80840191505092915050565b7f2e6a736f6e000000000000000000000000000000000000000000000000000000600082015250565b6000612e90600583612e1e565b9150612e9b82612e5a565b600582019050919050565b6000612eb28284612e29565b9150612ebd82612e83565b915081905092915050565b600081519050919050565b600082825260208201905092915050565b6000612eef82612ec8565b612ef98185612ed3565b9350612f09818560208601612233565b612f128161225d565b840191505092915050565b6000608082019050612f32600083018761235e565b612f3f602083018661235e565b612f4c60408301856123f4565b8181036060830152612f5e8184612ee4565b905095945050505050565b600081519050612f7881612188565b92915050565b600060208284031215612f9457612f93612152565b5b6000612fa284828501612f69565b91505092915050565b6000612fb6826122c9565b9150612fc1836122c9565b9250828203905081811115612fd957612fd8612924565b5b92915050565b7f4e487b7100000000000000000000000000000000000000000000000000000000600052603160045260246000fdfea26469706673582212201167e988cb6d9dcde3d329a154997bfc907f2eedb53072182d2668e8843b715c64736f6c63430008140033",
  "linkReferences": {},
  "deployedLinkReferences": {}
}